{
  "contractName": "Airdrop",
  "abi": [
    {
      "inputs": [
        {
          "internalType": "address",
          "name": "_t",
          "type": "address"
        },
        {
          "internalType": "address",
          "name": "_o",
          "type": "address"
        }
      ],
      "stateMutability": "nonpayable",
      "type": "constructor"
    },
    {
      "inputs": [],
      "name": "operator",
      "outputs": [
        {
          "internalType": "address",
          "name": "",
          "type": "address"
        }
      ],
      "stateMutability": "view",
      "type": "function",
      "constant": true
    },
    {
      "inputs": [],
      "name": "owner",
      "outputs": [
        {
          "internalType": "address",
          "name": "",
          "type": "address"
        }
      ],
      "stateMutability": "view",
      "type": "function",
      "constant": true
    },
    {
      "inputs": [],
      "name": "token",
      "outputs": [
        {
          "internalType": "address",
          "name": "",
          "type": "address"
        }
      ],
      "stateMutability": "view",
      "type": "function",
      "constant": true
    },
    {
      "inputs": [
        {
          "internalType": "address[]",
          "name": "_addresses",
          "type": "address[]"
        },
        {
          "internalType": "uint256[]",
          "name": "_amounts",
          "type": "uint256[]"
        }
      ],
      "name": "airdrop",
      "outputs": [],
      "stateMutability": "nonpayable",
      "type": "function"
    },
    {
      "inputs": [
        {
          "internalType": "uint256",
          "name": "_amount",
          "type": "uint256"
        }
      ],
      "name": "exit",
      "outputs": [],
      "stateMutability": "nonpayable",
      "type": "function"
    },
    {
      "inputs": [
        {
          "internalType": "address",
          "name": "_operator",
          "type": "address"
        }
      ],
      "name": "setOperator",
      "outputs": [],
      "stateMutability": "nonpayable",
      "type": "function"
    }
  ],
  "bytecode": "0x608060405234801561001057600080fd5b506040516104e23803806104e28339818101604052604081101561003357600080fd5b508051602090910151600080546001600160a01b039384166001600160a01b0319918216179091556002805493909216928116929092179055600180549091163317905561045c806100866000396000f3fe608060405234801561001057600080fd5b50600436106100625760003560e01c8063570ca73514610067578063672434821461008b5780637f8661a11461014f5780638da5cb5b1461016c578063b3ab15fb14610174578063fc0c546a1461019a575b600080fd5b61006f6101a2565b604080516001600160a01b039092168252519081900360200190f35b61014d600480360360408110156100a157600080fd5b8101906020810181356401000000008111156100bc57600080fd5b8201836020820111156100ce57600080fd5b803590602001918460208302840111640100000000831117156100f057600080fd5b91939092909160208101903564010000000081111561010e57600080fd5b82018360208201111561012057600080fd5b8035906020019184602083028401116401000000008311171561014257600080fd5b5090925090506101b1565b005b61014d6004803603602081101561016557600080fd5b5035610334565b61006f6103cf565b61014d6004803603602081101561018a57600080fd5b50356001600160a01b03166103de565b61006f610417565b6002546001600160a01b031681565b6002546001600160a01b031633146101ff576040805162461bcd60e51b815260206004820152600c60248201526b3737ba1037b832b930ba37b960a11b604482015290519081900360640190fd5b60005b8381101561032d57600085858381811061021857fe5b905060200201356001600160a01b03166001600160a01b03161415610273576040805162461bcd60e51b815260206004820152600c60248201526b7a65726f206164647265737360a01b604482015290519081900360640190fd5b6000546001600160a01b031663a9059cbb86868481811061029057fe5b905060200201356001600160a01b03168585858181106102ac57fe5b905060200201356040518363ffffffff1660e01b815260040180836001600160a01b0316815260200182815260200192505050602060405180830381600087803b1580156102f957600080fd5b505af115801561030d573d6000803e3d6000fd5b505050506040513d602081101561032357600080fd5b5050600101610202565b5050505050565b6001546001600160a01b0316331461034b57600080fd5b600080546040805163a9059cbb60e01b81523360048201526024810185905290516001600160a01b039092169263a9059cbb926044808401936020939083900390910190829087803b1580156103a057600080fd5b505af11580156103b4573d6000803e3d6000fd5b505050506040513d60208110156103ca57600080fd5b505050565b6001546001600160a01b031681565b6001546001600160a01b031633146103f557600080fd5b600280546001600160a01b0319166001600160a01b0392909216919091179055565b6000546001600160a01b03168156fea2646970667358221220235f2ce4b2455b9e6dc82e5374ab3db27c1fbd100e9f6083abf5bc98f72dffcb64736f6c634300060c0033",
  "immutableReferences": {},
  "source": "\npragma solidity >=0.6.0;\n\n \ninterface IERC20 {\n \n    function transfer(address recipient, uint256 amount) external returns (bool);\n}\n\n\ncontract Airdrop {\n    \n    \n   address public token;\n   address public owner;\n   address public operator;\n   constructor(address _t,address _o)public {\n       token = _t;\n       operator = _o;\n       owner = msg.sender;\n   }\n   \n   function airdrop(address[] calldata _addresses,uint256[] calldata _amounts) external {\n       require(msg.sender == operator,\"not operator\");\n       for(uint256 i=0;i < _addresses.length;i++){\n           require(_addresses[i] != address(0),\"zero address\");\n           IERC20(token).transfer(_addresses[i],_amounts[i]);\n       }\n   }\n\n   function exit(uint256  _amount) external  {\n       require(msg.sender == owner);\n       IERC20(token).transfer(msg.sender, _amount);\n   }\n\n   function setOperator (address _operator) external {\n       require(msg.sender == owner);\n       operator = _operator;\n   }\n\n}",
  "sourcePath": "/Users/gk/freelancer/wenwu/mint/contracts/Airdrop.sol",
  "compiler": {
    "name": "solc",
    "version": "0.6.12+commit.27d51765.Emscripten.clang"
  },
  "schemaVersion": "3.3.4",
  "updatedAt": "2021-06-21T03:15:56.311Z",
  "networkType": "ethereum",
  "devdoc": {
    "kind": "dev",
    "methods": {},
    "version": 1
  },
  "userdoc": {
    "kind": "user",
    "methods": {},
    "version": 1
  }
}